{
  "_format": "hh-sol-artifact-1",
  "contractName": "TeenPattiGame",
  "sourceName": "contracts/TeenPattiGame.sol",
  "abi": [
    {
      "inputs": [
        {
          "internalType": "address",
          "name": "_token",
          "type": "address"
        },
        {
          "internalType": "address",
          "name": "_treasury",
          "type": "address"
        },
        {
          "internalType": "address",
          "name": "_shuffleVerifier",
          "type": "address"
        },
        {
          "internalType": "address",
          "name": "_dealVerifier",
          "type": "address"
        },
        {
          "internalType": "address",
          "name": "_showVerifier",
          "type": "address"
        }
      ],
      "stateMutability": "nonpayable",
      "type": "constructor"
    },
    {
      "inputs": [],
      "name": "EnforcedPause",
      "type": "error"
    },
    {
      "inputs": [],
      "name": "ExpectedPause",
      "type": "error"
    },
    {
      "inputs": [
        {
          "internalType": "address",
          "name": "owner",
          "type": "address"
        }
      ],
      "name": "OwnableInvalidOwner",
      "type": "error"
    },
    {
      "inputs": [
        {
          "internalType": "address",
          "name": "account",
          "type": "address"
        }
      ],
      "name": "OwnableUnauthorizedAccount",
      "type": "error"
    },
    {
      "inputs": [],
      "name": "ReentrancyGuardReentrantCall",
      "type": "error"
    },
    {
      "anonymous": false,
      "inputs": [
        {
          "indexed": true,
          "internalType": "bytes32",
          "name": "roomId",
          "type": "bytes32"
        },
        {
          "indexed": true,
          "internalType": "address",
          "name": "player",
          "type": "address"
        },
        {
          "indexed": false,
          "internalType": "uint256",
          "name": "amount",
          "type": "uint256"
        }
      ],
      "name": "BetPlaced",
      "type": "event"
    },
    {
      "anonymous": false,
      "inputs": [
        {
          "indexed": true,
          "internalType": "bytes32",
          "name": "roomId",
          "type": "bytes32"
        },
        {
          "indexed": false,
          "internalType": "address[]",
          "name": "players",
          "type": "address[]"
        },
        {
          "indexed": false,
          "internalType": "uint256[]",
          "name": "payouts",
          "type": "uint256[]"
        },
        {
          "indexed": false,
          "internalType": "uint256",
          "name": "rake",
          "type": "uint256"
        }
      ],
      "name": "CashGameSettled",
      "type": "event"
    },
    {
      "anonymous": false,
      "inputs": [
        {
          "indexed": true,
          "internalType": "bytes32",
          "name": "roomId",
          "type": "bytes32"
        },
        {
          "indexed": true,
          "internalType": "address",
          "name": "player",
          "type": "address"
        },
        {
          "indexed": false,
          "internalType": "uint256",
          "name": "amount",
          "type": "uint256"
        }
      ],
      "name": "EmergencyWithdraw",
      "type": "event"
    },
    {
      "anonymous": false,
      "inputs": [
        {
          "indexed": true,
          "internalType": "bytes32",
          "name": "roomId",
          "type": "bytes32"
        },
        {
          "indexed": false,
          "internalType": "uint256",
          "name": "pot",
          "type": "uint256"
        },
        {
          "indexed": false,
          "internalType": "uint256",
          "name": "playerCount",
          "type": "uint256"
        }
      ],
      "name": "GameStarted",
      "type": "event"
    },
    {
      "anonymous": false,
      "inputs": [
        {
          "indexed": true,
          "internalType": "bytes32",
          "name": "roomId",
          "type": "bytes32"
        },
        {
          "indexed": false,
          "internalType": "bytes32",
          "name": "deckCommitment",
          "type": "bytes32"
        },
        {
          "indexed": false,
          "internalType": "uint256",
          "name": "playerCount",
          "type": "uint256"
        }
      ],
      "name": "GameStartedWithProof",
      "type": "event"
    },
    {
      "anonymous": false,
      "inputs": [
        {
          "indexed": true,
          "internalType": "bytes32",
          "name": "roomId",
          "type": "bytes32"
        },
        {
          "indexed": true,
          "internalType": "address",
          "name": "player",
          "type": "address"
        },
        {
          "indexed": false,
          "internalType": "uint256",
          "name": "handRank",
          "type": "uint256"
        }
      ],
      "name": "HandShown",
      "type": "event"
    },
    {
      "anonymous": false,
      "inputs": [
        {
          "indexed": true,
          "internalType": "address",
          "name": "previousOwner",
          "type": "address"
        },
        {
          "indexed": true,
          "internalType": "address",
          "name": "newOwner",
          "type": "address"
        }
      ],
      "name": "OwnershipTransferred",
      "type": "event"
    },
    {
      "anonymous": false,
      "inputs": [
        {
          "indexed": false,
          "internalType": "address",
          "name": "account",
          "type": "address"
        }
      ],
      "name": "Paused",
      "type": "event"
    },
    {
      "anonymous": false,
      "inputs": [
        {
          "indexed": true,
          "internalType": "bytes32",
          "name": "roomId",
          "type": "bytes32"
        },
        {
          "indexed": true,
          "internalType": "address",
          "name": "player",
          "type": "address"
        },
        {
          "indexed": false,
          "internalType": "uint256",
          "name": "buyIn",
          "type": "uint256"
        }
      ],
      "name": "PlayerJoined",
      "type": "event"
    },
    {
      "anonymous": false,
      "inputs": [
        {
          "indexed": true,
          "internalType": "bytes32",
          "name": "roomId",
          "type": "bytes32"
        },
        {
          "indexed": true,
          "internalType": "address",
          "name": "player",
          "type": "address"
        },
        {
          "indexed": false,
          "internalType": "uint256",
          "name": "refund",
          "type": "uint256"
        }
      ],
      "name": "PlayerLeft",
      "type": "event"
    },
    {
      "anonymous": false,
      "inputs": [
        {
          "indexed": true,
          "internalType": "bytes32",
          "name": "roomId",
          "type": "bytes32"
        },
        {
          "indexed": true,
          "internalType": "address",
          "name": "player",
          "type": "address"
        },
        {
          "indexed": false,
          "internalType": "enum TeenPattiGame.CircuitType",
          "name": "circuitType",
          "type": "uint8"
        }
      ],
      "name": "ProofVerified",
      "type": "event"
    },
    {
      "anonymous": false,
      "inputs": [
        {
          "indexed": false,
          "internalType": "uint256",
          "name": "newRakeFee",
          "type": "uint256"
        }
      ],
      "name": "RakeFeeUpdated",
      "type": "event"
    },
    {
      "anonymous": false,
      "inputs": [
        {
          "indexed": true,
          "internalType": "bytes32",
          "name": "roomId",
          "type": "bytes32"
        }
      ],
      "name": "RoomClosed",
      "type": "event"
    },
    {
      "anonymous": false,
      "inputs": [
        {
          "indexed": true,
          "internalType": "bytes32",
          "name": "roomId",
          "type": "bytes32"
        },
        {
          "indexed": true,
          "internalType": "address",
          "name": "creator",
          "type": "address"
        },
        {
          "indexed": false,
          "internalType": "uint256",
          "name": "buyIn",
          "type": "uint256"
        },
        {
          "indexed": false,
          "internalType": "uint256",
          "name": "maxPlayers",
          "type": "uint256"
        }
      ],
      "name": "RoomCreated",
      "type": "event"
    },
    {
      "anonymous": false,
      "inputs": [
        {
          "indexed": true,
          "internalType": "address",
          "name": "newTreasury",
          "type": "address"
        }
      ],
      "name": "TreasuryUpdated",
      "type": "event"
    },
    {
      "anonymous": false,
      "inputs": [
        {
          "indexed": false,
          "internalType": "address",
          "name": "account",
          "type": "address"
        }
      ],
      "name": "Unpaused",
      "type": "event"
    },
    {
      "anonymous": false,
      "inputs": [
        {
          "indexed": false,
          "internalType": "address",
          "name": "shuffleVerifier",
          "type": "address"
        },
        {
          "indexed": false,
          "internalType": "address",
          "name": "dealVerifier",
          "type": "address"
        },
        {
          "indexed": false,
          "internalType": "address",
          "name": "showVerifier",
          "type": "address"
        }
      ],
      "name": "VerifiersUpdated",
      "type": "event"
    },
    {
      "anonymous": false,
      "inputs": [
        {
          "indexed": true,
          "internalType": "bytes32",
          "name": "roomId",
          "type": "bytes32"
        },
        {
          "indexed": true,
          "internalType": "address",
          "name": "winner",
          "type": "address"
        },
        {
          "indexed": false,
          "internalType": "uint256",
          "name": "amount",
          "type": "uint256"
        },
        {
          "indexed": false,
          "internalType": "uint256",
          "name": "rake",
          "type": "uint256"
        }
      ],
      "name": "WinnerDeclared",
      "type": "event"
    },
    {
      "inputs": [],
      "name": "GAME_TIMEOUT",
      "outputs": [
        {
          "internalType": "uint256",
          "name": "",
          "type": "uint256"
        }
      ],
      "stateMutability": "view",
      "type": "function"
    },
    {
      "inputs": [
        {
          "internalType": "uint256",
          "name": "",
          "type": "uint256"
        }
      ],
      "name": "activeRoomIds",
      "outputs": [
        {
          "internalType": "bytes32",
          "name": "",
          "type": "bytes32"
        }
      ],
      "stateMutability": "view",
      "type": "function"
    },
    {
      "inputs": [
        {
          "internalType": "bytes32",
          "name": "_roomId",
          "type": "bytes32"
        }
      ],
      "name": "closeRoom",
      "outputs": [],
      "stateMutability": "nonpayable",
      "type": "function"
    },
    {
      "inputs": [
        {
          "internalType": "uint256",
          "name": "_buyIn",
          "type": "uint256"
        },
        {
          "internalType": "uint256",
          "name": "_maxPlayers",
          "type": "uint256"
        }
      ],
      "name": "createRoom",
      "outputs": [
        {
          "internalType": "bytes32",
          "name": "",
          "type": "bytes32"
        }
      ],
      "stateMutability": "nonpayable",
      "type": "function"
    },
    {
      "inputs": [],
      "name": "dealVerifier",
      "outputs": [
        {
          "internalType": "contract IVerifier",
          "name": "",
          "type": "address"
        }
      ],
      "stateMutability": "view",
      "type": "function"
    },
    {
      "inputs": [
        {
          "internalType": "bytes32",
          "name": "_roomId",
          "type": "bytes32"
        },
        {
          "internalType": "address",
          "name": "_winner",
          "type": "address"
        }
      ],
      "name": "declareWinner",
      "outputs": [],
      "stateMutability": "nonpayable",
      "type": "function"
    },
    {
      "inputs": [
        {
          "internalType": "bytes32",
          "name": "_roomId",
          "type": "bytes32"
        }
      ],
      "name": "emergencyWithdraw",
      "outputs": [],
      "stateMutability": "nonpayable",
      "type": "function"
    },
    {
      "inputs": [],
      "name": "getActiveRooms",
      "outputs": [
        {
          "internalType": "bytes32[]",
          "name": "",
          "type": "bytes32[]"
        }
      ],
      "stateMutability": "view",
      "type": "function"
    },
    {
      "inputs": [
        {
          "internalType": "bytes32",
          "name": "_roomId",
          "type": "bytes32"
        },
        {
          "internalType": "address",
          "name": "_player",
          "type": "address"
        }
      ],
      "name": "getPlayerBalance",
      "outputs": [
        {
          "internalType": "uint256",
          "name": "",
          "type": "uint256"
        }
      ],
      "stateMutability": "view",
      "type": "function"
    },
    {
      "inputs": [
        {
          "internalType": "address",
          "name": "_player",
          "type": "address"
        }
      ],
      "name": "getPlayerRooms",
      "outputs": [
        {
          "internalType": "bytes32[]",
          "name": "",
          "type": "bytes32[]"
        }
      ],
      "stateMutability": "view",
      "type": "function"
    },
    {
      "inputs": [
        {
          "internalType": "bytes32",
          "name": "_roomId",
          "type": "bytes32"
        }
      ],
      "name": "getRoomDetails",
      "outputs": [
        {
          "internalType": "address",
          "name": "creator",
          "type": "address"
        },
        {
          "internalType": "uint256",
          "name": "buyIn",
          "type": "uint256"
        },
        {
          "internalType": "uint256",
          "name": "pot",
          "type": "uint256"
        },
        {
          "internalType": "uint256",
          "name": "maxPlayers",
          "type": "uint256"
        },
        {
          "internalType": "uint256",
          "name": "currentPlayers",
          "type": "uint256"
        },
        {
          "internalType": "enum TeenPattiGame.GameState",
          "name": "state",
          "type": "uint8"
        },
        {
          "internalType": "address",
          "name": "winner",
          "type": "address"
        }
      ],
      "stateMutability": "view",
      "type": "function"
    },
    {
      "inputs": [
        {
          "internalType": "bytes32",
          "name": "_roomId",
          "type": "bytes32"
        }
      ],
      "name": "getRoomPlayers",
      "outputs": [
        {
          "internalType": "address[]",
          "name": "",
          "type": "address[]"
        }
      ],
      "stateMutability": "view",
      "type": "function"
    },
    {
      "inputs": [
        {
          "internalType": "bytes32",
          "name": "_roomId",
          "type": "bytes32"
        }
      ],
      "name": "getRoomProofs",
      "outputs": [
        {
          "components": [
            {
              "internalType": "bytes32",
              "name": "commitment",
              "type": "bytes32"
            },
            {
              "internalType": "address",
              "name": "player",
              "type": "address"
            },
            {
              "internalType": "enum TeenPattiGame.CircuitType",
              "name": "circuitType",
              "type": "uint8"
            },
            {
              "internalType": "uint256",
              "name": "timestamp",
              "type": "uint256"
            },
            {
              "internalType": "bool",
              "name": "verified",
              "type": "bool"
            }
          ],
          "internalType": "struct TeenPattiGame.ProofRecord[]",
          "name": "",
          "type": "tuple[]"
        }
      ],
      "stateMutability": "view",
      "type": "function"
    },
    {
      "inputs": [],
      "name": "getTotalRakeCollected",
      "outputs": [
        {
          "internalType": "uint256",
          "name": "",
          "type": "uint256"
        }
      ],
      "stateMutability": "view",
      "type": "function"
    },
    {
      "inputs": [
        {
          "internalType": "bytes32",
          "name": "_roomId",
          "type": "bytes32"
        }
      ],
      "name": "handleTimeout",
      "outputs": [],
      "stateMutability": "nonpayable",
      "type": "function"
    },
    {
      "inputs": [
        {
          "internalType": "bytes32",
          "name": "_roomId",
          "type": "bytes32"
        }
      ],
      "name": "joinRoom",
      "outputs": [],
      "stateMutability": "nonpayable",
      "type": "function"
    },
    {
      "inputs": [
        {
          "internalType": "bytes32",
          "name": "_roomId",
          "type": "bytes32"
        }
      ],
      "name": "leaveRoom",
      "outputs": [],
      "stateMutability": "nonpayable",
      "type": "function"
    },
    {
      "inputs": [],
      "name": "owner",
      "outputs": [
        {
          "internalType": "address",
          "name": "",
          "type": "address"
        }
      ],
      "stateMutability": "view",
      "type": "function"
    },
    {
      "inputs": [],
      "name": "pause",
      "outputs": [],
      "stateMutability": "nonpayable",
      "type": "function"
    },
    {
      "inputs": [],
      "name": "paused",
      "outputs": [
        {
          "internalType": "bool",
          "name": "",
          "type": "bool"
        }
      ],
      "stateMutability": "view",
      "type": "function"
    },
    {
      "inputs": [
        {
          "internalType": "bytes32",
          "name": "_roomId",
          "type": "bytes32"
        },
        {
          "internalType": "address",
          "name": "_player",
          "type": "address"
        },
        {
          "internalType": "uint256",
          "name": "_amount",
          "type": "uint256"
        }
      ],
      "name": "placeBet",
      "outputs": [],
      "stateMutability": "nonpayable",
      "type": "function"
    },
    {
      "inputs": [
        {
          "internalType": "address",
          "name": "",
          "type": "address"
        },
        {
          "internalType": "uint256",
          "name": "",
          "type": "uint256"
        }
      ],
      "name": "playerRooms",
      "outputs": [
        {
          "internalType": "bytes32",
          "name": "",
          "type": "bytes32"
        }
      ],
      "stateMutability": "view",
      "type": "function"
    },
    {
      "inputs": [],
      "name": "rakeFee",
      "outputs": [
        {
          "internalType": "uint256",
          "name": "",
          "type": "uint256"
        }
      ],
      "stateMutability": "view",
      "type": "function"
    },
    {
      "inputs": [
        {
          "internalType": "address",
          "name": "_token",
          "type": "address"
        },
        {
          "internalType": "uint256",
          "name": "_amount",
          "type": "uint256"
        }
      ],
      "name": "recoverTokens",
      "outputs": [],
      "stateMutability": "nonpayable",
      "type": "function"
    },
    {
      "inputs": [],
      "name": "renounceOwnership",
      "outputs": [],
      "stateMutability": "nonpayable",
      "type": "function"
    },
    {
      "inputs": [
        {
          "internalType": "bytes32",
          "name": "",
          "type": "bytes32"
        },
        {
          "internalType": "uint256",
          "name": "",
          "type": "uint256"
        }
      ],
      "name": "roomProofs",
      "outputs": [
        {
          "internalType": "bytes32",
          "name": "commitment",
          "type": "bytes32"
        },
        {
          "internalType": "address",
          "name": "player",
          "type": "address"
        },
        {
          "internalType": "enum TeenPattiGame.CircuitType",
          "name": "circuitType",
          "type": "uint8"
        },
        {
          "internalType": "uint256",
          "name": "timestamp",
          "type": "uint256"
        },
        {
          "internalType": "bool",
          "name": "verified",
          "type": "bool"
        }
      ],
      "stateMutability": "view",
      "type": "function"
    },
    {
      "inputs": [
        {
          "internalType": "bytes32",
          "name": "",
          "type": "bytes32"
        }
      ],
      "name": "rooms",
      "outputs": [
        {
          "internalType": "bytes32",
          "name": "roomId",
          "type": "bytes32"
        },
        {
          "internalType": "address",
          "name": "creator",
          "type": "address"
        },
        {
          "internalType": "uint256",
          "name": "buyIn",
          "type": "uint256"
        },
        {
          "internalType": "uint256",
          "name": "pot",
          "type": "uint256"
        },
        {
          "internalType": "uint256",
          "name": "maxPlayers",
          "type": "uint256"
        },
        {
          "internalType": "enum TeenPattiGame.GameState",
          "name": "state",
          "type": "uint8"
        },
        {
          "internalType": "address",
          "name": "winner",
          "type": "address"
        },
        {
          "internalType": "uint256",
          "name": "createdAt",
          "type": "uint256"
        },
        {
          "internalType": "uint256",
          "name": "finishedAt",
          "type": "uint256"
        },
        {
          "internalType": "bytes32",
          "name": "deckCommitment",
          "type": "bytes32"
        }
      ],
      "stateMutability": "view",
      "type": "function"
    },
    {
      "inputs": [
        {
          "internalType": "bytes32",
          "name": "_roomId",
          "type": "bytes32"
        },
        {
          "internalType": "address[]",
          "name": "_players",
          "type": "address[]"
        },
        {
          "internalType": "uint256[]",
          "name": "_finalChips",
          "type": "uint256[]"
        }
      ],
      "name": "settleCashGame",
      "outputs": [],
      "stateMutability": "nonpayable",
      "type": "function"
    },
    {
      "inputs": [
        {
          "internalType": "bytes32",
          "name": "_roomId",
          "type": "bytes32"
        },
        {
          "internalType": "bytes",
          "name": "_showProof",
          "type": "bytes"
        },
        {
          "internalType": "bytes32[]",
          "name": "_publicInputs",
          "type": "bytes32[]"
        }
      ],
      "name": "showHand",
      "outputs": [],
      "stateMutability": "nonpayable",
      "type": "function"
    },
    {
      "inputs": [],
      "name": "showVerifier",
      "outputs": [
        {
          "internalType": "contract IVerifier",
          "name": "",
          "type": "address"
        }
      ],
      "stateMutability": "view",
      "type": "function"
    },
    {
      "inputs": [],
      "name": "shuffleVerifier",
      "outputs": [
        {
          "internalType": "contract IVerifier",
          "name": "",
          "type": "address"
        }
      ],
      "stateMutability": "view",
      "type": "function"
    },
    {
      "inputs": [
        {
          "internalType": "bytes32",
          "name": "_roomId",
          "type": "bytes32"
        }
      ],
      "name": "startGame",
      "outputs": [],
      "stateMutability": "nonpayable",
      "type": "function"
    },
    {
      "inputs": [
        {
          "internalType": "bytes32",
          "name": "_roomId",
          "type": "bytes32"
        },
        {
          "internalType": "bytes32",
          "name": "_deckCommitment",
          "type": "bytes32"
        },
        {
          "internalType": "bytes",
          "name": "_shuffleProof",
          "type": "bytes"
        },
        {
          "internalType": "bytes32[]",
          "name": "_publicInputs",
          "type": "bytes32[]"
        }
      ],
      "name": "startGameWithProof",
      "outputs": [],
      "stateMutability": "nonpayable",
      "type": "function"
    },
    {
      "inputs": [],
      "name": "token",
      "outputs": [
        {
          "internalType": "contract IERC20",
          "name": "",
          "type": "address"
        }
      ],
      "stateMutability": "view",
      "type": "function"
    },
    {
      "inputs": [],
      "name": "totalRakeCollected",
      "outputs": [
        {
          "internalType": "uint256",
          "name": "",
          "type": "uint256"
        }
      ],
      "stateMutability": "view",
      "type": "function"
    },
    {
      "inputs": [
        {
          "internalType": "address",
          "name": "newOwner",
          "type": "address"
        }
      ],
      "name": "transferOwnership",
      "outputs": [],
      "stateMutability": "nonpayable",
      "type": "function"
    },
    {
      "inputs": [],
      "name": "treasury",
      "outputs": [
        {
          "internalType": "address",
          "name": "",
          "type": "address"
        }
      ],
      "stateMutability": "view",
      "type": "function"
    },
    {
      "inputs": [],
      "name": "unpause",
      "outputs": [],
      "stateMutability": "nonpayable",
      "type": "function"
    },
    {
      "inputs": [
        {
          "internalType": "uint256",
          "name": "_newRakeFee",
          "type": "uint256"
        }
      ],
      "name": "updateRakeFee",
      "outputs": [],
      "stateMutability": "nonpayable",
      "type": "function"
    },
    {
      "inputs": [
        {
          "internalType": "address",
          "name": "_newTreasury",
          "type": "address"
        }
      ],
      "name": "updateTreasury",
      "outputs": [],
      "stateMutability": "nonpayable",
      "type": "function"
    },
    {
      "inputs": [
        {
          "internalType": "address",
          "name": "_shuffleVerifier",
          "type": "address"
        },
        {
          "internalType": "address",
          "name": "_dealVerifier",
          "type": "address"
        },
        {
          "internalType": "address",
          "name": "_showVerifier",
          "type": "address"
        }
      ],
      "name": "updateVerifiers",
      "outputs": [],
      "stateMutability": "nonpayable",
      "type": "function"
    },
    {
      "inputs": [
        {
          "internalType": "bytes32",
          "name": "_roomId",
          "type": "bytes32"
        },
        {
          "internalType": "bytes",
          "name": "_dealProof",
          "type": "bytes"
        },
        {
          "internalType": "bytes32[]",
          "name": "_publicInputs",
          "type": "bytes32[]"
        }
      ],
      "name": "verifyDeal",
      "outputs": [],
      "stateMutability": "nonpayable",
      "type": "function"
    }
  ],
  "bytecode": "0x60806040526101f4600a5534801561001657600080fd5b506040516143ec3803806143ec833981016040819052610035916102f0565b338061005c57604051631e4fbdf760e01b8152600060048201526024015b60405180910390fd5b61006581610284565b50600180556001600160a01b0385166100c05760405162461bcd60e51b815260206004820152601560248201527f496e76616c696420746f6b656e206164647265737300000000000000000000006044820152606401610053565b6001600160a01b0384166101165760405162461bcd60e51b815260206004820152601860248201527f496e76616c6964207472656173757279206164647265737300000000000000006044820152606401610053565b6001600160a01b03831661016c5760405162461bcd60e51b815260206004820152601860248201527f496e76616c69642073687566666c6520766572696669657200000000000000006044820152606401610053565b6001600160a01b0382166101c25760405162461bcd60e51b815260206004820152601560248201527f496e76616c6964206465616c20766572696669657200000000000000000000006044820152606401610053565b6001600160a01b0381166102185760405162461bcd60e51b815260206004820152601560248201527f496e76616c69642073686f7720766572696669657200000000000000000000006044820152606401610053565b600280546001600160a01b0396871661010002610100600160a81b0319909116179055600b80549486166001600160a01b031995861617905560038054938616938516939093179092556004805491851691841691909117905560058054919093169116179055610355565b600080546001600160a01b038381166001600160a01b0319831681178455604051919092169283917f8be0079c531659141344cd1fd0a4f28419497f9722a3daafe3b4186f6b6457e09190a35050565b80516001600160a01b03811681146102eb57600080fd5b919050565b600080600080600060a0868803121561030857600080fd5b610311866102d4565b945061031f602087016102d4565b935061032d604087016102d4565b925061033b606087016102d4565b9150610349608087016102d4565b90509295509295909350565b614088806103646000396000f3fe608060405234801561001057600080fd5b506004361061025e5760003560e01c8063775e729b11610146578063af8b9b18116100c3578063d7fbc2e411610087578063d7fbc2e414610575578063ea573265146105fa578063f2fde38b1461060d578063f54fdb0014610620578063f636f42a14610640578063fc0c546a1461065357600080fd5b8063af8b9b1814610509578063bac95fab1461051c578063bc0730e81461052f578063c3385ae314610542578063c5e591981461056257600080fd5b80638a8cefca1161010a5780638a8cefca146104b65780638da5cb5b146104c9578063a27a3420146104da578063aa34331b146104ed578063ab196acd146104f657600080fd5b8063775e729b146104605780637f51bb1f1461047357806381f7bc52146104865780638456cb591461049957806385039bf6146104a157600080fd5b80633f4ba83a116101df57806361d027b3116101a357806361d027b3146103f95780636e9359e41461040c578063715018a61461041f5780637569a69e1461042757806375870d651461043a578063763e5b481461044d57600080fd5b80633f4ba83a146103ad57806346bf746d146103b55780634b29b4c4146103bd5780634c92fb12146103d05780635c975abb146103e357600080fd5b806321fe77aa1161022657806321fe77aa146102db57806322707265146102ee57806335f1e5871461030157806336147364146103765780633c7192c11461039a57600080fd5b80630338b87e14610263578063069c9fae14610293578063099420b6146102a85780630d2d20d9146102bf5780631d4fd961146102d2575b600080fd5b600554610276906001600160a01b031681565b6040516001600160a01b0390911681526020015b60405180910390f35b6102a66102a13660046136ea565b61066b565b005b6102b1610e1081565b60405190815260200161028a565b600354610276906001600160a01b031681565b6102b1600a5481565b6102a66102e9366004613714565b61075d565b6102b16102fc366004613714565b610ae9565b61036361030f366004613714565b60009081526006602081905260409091206001810154600382015460048301546005840154600285015494909501546001600160a01b0393841696929591949193919260ff82169261010090920490911690565b60405161028a9796959493929190613757565b6103896103843660046137ad565b610b0a565b60405161028a9594939291906137df565b6102a66103a8366004613714565b610b69565b6102a6610d71565b600c546102b1565b6102a66103cb366004613714565b610d83565b6102a66103de366004613714565b611149565b60025460ff16604051901515815260200161028a565b600b54610276906001600160a01b031681565b6102a661041a36600461381a565b6112af565b6102a66115fa565b6102a6610435366004613846565b61160c565b6102a6610448366004613714565b6117eb565b6102a661045b366004613954565b611a6c565b6102b161046e36600461381a565b61215d565b6102a6610481366004613a26565b61218a565b6102a6610494366004613ad6565b612232565b6102a661260d565b6104a961261d565b60405161028a9190613b55565b6104a96104c4366004613a26565b612675565b6000546001600160a01b0316610276565b600454610276906001600160a01b031681565b6102b1600c5481565b6102b16105043660046137ad565b6126e1565b6102a6610517366004613714565b612ad5565b6102a661052a366004613ad6565b612bd2565b6102b161053d3660046136ea565b612e52565b610555610550366004613714565b612e83565b60405161028a9190613b98565b6102a6610570366004613c12565b612f64565b6105e4610583366004613714565b600660208190526000918252604090912080546001820154600383015460048401546005850154958501546007860154600887015460099097015495976001600160a01b039586169794969395909460ff841694610100909404909116928a565b60405161028a9a99989796959493929190613c9a565b6102a6610608366004613714565b6132a1565b6102a661061b366004613a26565b61332a565b61063361062e366004613714565b613365565b60405161028a9190613d4b565b6102a661064e366004613d5e565b6133d3565b6002546102769061010090046001600160a01b031681565b610673613551565b6001600160a01b0382166106c65760405162461bcd60e51b8152602060048201526015602482015274496e76616c696420746f6b656e206164647265737360581b60448201526064015b60405180910390fd5b816001600160a01b031663a9059cbb6106e76000546001600160a01b031690565b6040516001600160e01b031960e084901b1681526001600160a01b039091166004820152602481018490526044016020604051808303816000875af1158015610734573d6000803e3d6000fd5b505050506040513d601f19601f820116820180604052508101906107589190613da1565b505050565b61076561357e565b6000818152600660209081526040808320338452600c81019092529091205460ff166107c65760405162461bcd60e51b815260206004820152601060248201526f4e6f7420696e207468697320726f6f6d60801b60448201526064016106bd565b6000600682015460ff1660048111156107e1576107e161372d565b146107fe5760405162461bcd60e51b81526004016106bd90613dc3565b336000908152600b82016020526040902054806108545760405162461bcd60e51b8152602060048201526014602482015273139bc818985b185b98d9481d1bc81c99599d5b9960621b60448201526064016106bd565b336000908152600c830160209081526040808320805460ff19169055600b85019091528120819055600483018054839290610890908490613e07565b90915550600090505b600283015481101561099e57336001600160a01b03168360020182815481106108c4576108c4613e1a565b6000918252602090912001546001600160a01b031603610996576002830180546108f090600190613e07565b8154811061090057610900613e1a565b6000918252602090912001546002840180546001600160a01b03909216918390811061092e5761092e613e1a565b9060005260206000200160006101000a8154816001600160a01b0302191690836001600160a01b031602179055508260020180548061096f5761096f613e30565b600082815260209020810160001990810180546001600160a01b031916905501905561099e565b600101610899565b5060025460405163a9059cbb60e01b8152336004820152602481018390526101009091046001600160a01b03169063a9059cbb906044016020604051808303816000875af11580156109f4573d6000803e3d6000fd5b505050506040513d601f19601f82011682018060405250810190610a189190613da1565b610a5d5760405162461bcd60e51b81526020600482015260166024820152751499599d5b99081d1c985b9cd9995c8819985a5b195960521b60448201526064016106bd565b604051818152339084907fcf0d7a42a42baf449dbf1a7c4b7b9a7f4bac3a411564ef0d46979e7fb9a59bfd9060200160405180910390a36002820154600003610adb5760068201805460ff1916600417905560405183907ff89b62d5ed31af5007e4f697e3397fd9a3854dfecb25a7dd0c8d3d9bf8bd816890600090a25b5050610ae660018055565b50565b60098181548110610af957600080fd5b600091825260209091200154905081565b60086020528160005260406000208181548110610b2657600080fd5b600091825260209091206004909102018054600182015460028301546003909301549194506001600160a01b038116935060ff600160a01b909104811692911685565b610b7161357e565b60008181526006602052604090206001600682015460ff166004811115610b9a57610b9a61372d565b14610bb75760405162461bcd60e51b81526004016106bd90613e46565b610e108160070154610bc99190613e6f565b421015610c0e5760405162461bcd60e51b8152602060048201526013602482015272151a5b595bdd5d081b9bdd081c995858da1959606a1b60448201526064016106bd565b60005b6002820154811015610d24576000826002018281548110610c3457610c34613e1a565b60009182526020909120015460038401546001600160a01b0390911691508015610d1a5760025460405163a9059cbb60e01b81526001600160a01b038481166004830152602482018490526101009092049091169063a9059cbb906044016020604051808303816000875af1158015610cb1573d6000803e3d6000fd5b505050506040513d601f19601f82011682018060405250810190610cd59190613da1565b610d1a5760405162461bcd60e51b81526020600482015260166024820152751499599d5b99081d1c985b9cd9995c8819985a5b195960521b60448201526064016106bd565b5050600101610c11565b5060068101805460ff19166004908117909155600090820181905560405183917ff89b62d5ed31af5007e4f697e3397fd9a3854dfecb25a7dd0c8d3d9bf8bd816891a250610ae660018055565b610d79613551565b610d816135a8565b565b610d8b61357e565b610d936135fa565b600081815260066020526040902060018101546001600160a01b0316610dcb5760405162461bcd60e51b81526004016106bd90613e82565b6000600682015460ff166004811115610de657610de661372d565b14610e335760405162461bcd60e51b815260206004820152601a60248201527f526f6f6d206e6f7420616363657074696e6720706c617965727300000000000060448201526064016106bd565b336000908152600c8201602052604090205460ff1615610e955760405162461bcd60e51b815260206004820152601860248201527f416c7265616479206a6f696e6564207468697320726f6f6d000000000000000060448201526064016106bd565b6005810154600282015410610edb5760405162461bcd60e51b815260206004820152600c60248201526b149bdbdb481a5cc8199d5b1b60a21b60448201526064016106bd565b60038101546002546040516370a0823160e01b81523360048201526101009091046001600160a01b0316906370a0823190602401602060405180830381865afa158015610f2c573d6000803e3d6000fd5b505050506040513d601f19601f82011682018060405250810190610f509190613eaf565b1015610f9e5760405162461bcd60e51b815260206004820152601a60248201527f496e73756666696369656e7420746f6b656e2062616c616e636500000000000060448201526064016106bd565b60025460038201546040516323b872dd60e01b815233600482015230602482015260448101919091526101009091046001600160a01b0316906323b872dd906064016020604051808303816000875af1158015610fff573d6000803e3d6000fd5b505050506040513d601f19601f820116820180604052508101906110239190613da1565b6110675760405162461bcd60e51b8152602060048201526015602482015274151bdad95b881d1c985b9cd9995c8819985a5b1959605a1b60448201526064016106bd565b600281018054600181810183556000928352602080842090920180546001600160a01b03191633908117909155600385018054918552600b86018452604080862092909255600c86019093528320805460ff1916909117905554600483018054919290916110d6908490613e6f565b9091555050336000818152600760209081526040808320805460018101825590845291909220018490556003830154905184917f65525cf08411b7a61d237681a43890956ad2e2ede88afd947f58eb4158c37f959161113791815260200190565b60405180910390a350610ae660018055565b61115161357e565b600081815260066020526040902060018101546001600160a01b03166111895760405162461bcd60e51b81526004016106bd90613e82565b60018101546001600160a01b03163314806111ae57506000546001600160a01b031633145b6111ca5760405162461bcd60e51b81526004016106bd90613ec8565b6000600682015460ff1660048111156111e5576111e561372d565b146112025760405162461bcd60e51b81526004016106bd90613dc3565b60028181015410156112505760405162461bcd60e51b81526020600482015260176024820152764e656564206174206c65617374203220706c617965727360481b60448201526064016106bd565b60068101805460ff191660011790556004810154600282015460408051928352602083019190915283917f38f56d43c299aca81fdefe3bba16676fb1482e023cd61ab890dfdb087117e9d3910160405180910390a250610ae660018055565b6112b761357e565b60008281526006602052604090206001600682015460ff1660048111156112e0576112e061372d565b146112fd5760405162461bcd60e51b81526004016106bd90613e46565b6001600160a01b0382166000908152600c8201602052604090205460ff1661135c5760405162461bcd60e51b815260206004820152601260248201527157696e6e6572206e6f7420696e20726f6f6d60701b60448201526064016106bd565b6004810154806113a55760405162461bcd60e51b81526020600482015260146024820152734e6f20706f7420746f206469737472696275746560601b60448201526064016106bd565b6000612710600a54836113b89190613ef0565b6113c29190613f07565b905060006113d08284613e07565b6006850180546001600160a01b038881166101008181026001600160a81b03199094169390931760031790935542600889015560006004808a019190915560025460405163a9059cbb60e01b815291820194909452602481018590529394509104169063a9059cbb906044016020604051808303816000875af115801561145b573d6000803e3d6000fd5b505050506040513d601f19601f8201168201806040525081019061147f9190613da1565b6114c45760405162461bcd60e51b815260206004820152601660248201527515da5b9b995c881d1c985b9cd9995c8819985a5b195960521b60448201526064016106bd565b81156115a357600254600b5460405163a9059cbb60e01b81526001600160a01b03918216600482015260248101859052610100909204169063a9059cbb906044016020604051808303816000875af1158015611524573d6000803e3d6000fd5b505050506040513d601f19601f820116820180604052508101906115489190613da1565b61158b5760405162461bcd60e51b815260206004820152601460248201527314985ad9481d1c985b9cd9995c8819985a5b195960621b60448201526064016106bd565b81600c600082825461159d9190613e6f565b90915550505b60408051828152602081018490526001600160a01b0387169188917f29b433d2cb0c1f1a8245540e06ffe118d2013464095f475f9e057308c0f0bac7910160405180910390a3505050506115f660018055565b5050565b611602613551565b610d81600061361e565b61161461357e565b600083815260066020526040812090546001600160a01b0316331461167b5760405162461bcd60e51b815260206004820152601b60248201527f4f6e6c79206261636b656e642063616e20706c6163652062657473000000000060448201526064016106bd565b6001600682015460ff1660048111156116965761169661372d565b146116b35760405162461bcd60e51b81526004016106bd90613e46565b6001600160a01b0383166000908152600c8201602052604090205460ff166116ed5760405162461bcd60e51b81526004016106bd90613f29565b6001600160a01b0383166000908152600b820160205260409020548211156117575760405162461bcd60e51b815260206004820152601b60248201527f496e73756666696369656e7420706c617965722062616c616e6365000000000060448201526064016106bd565b6001600160a01b0383166000908152600b8201602052604081208054849290611781908490613e07565b925050819055508181600401600082825461179c9190613e6f565b90915550506040518281526001600160a01b0384169085907fcd5f79909b53eb4c55b0a2d7004914519bad1e3ade1b3dae6005d528d83da31e9060200160405180910390a35061075860018055565b6117f361357e565b6000818152600660209081526040808320338452600c81019092529091205460ff166118545760405162461bcd60e51b815260206004820152601060248201526f4e6f7420696e207468697320726f6f6d60801b60448201526064016106bd565b6001600682015460ff16600481111561186f5761186f61372d565b1461188c5760405162461bcd60e51b81526004016106bd90613e46565b336000908152600b82016020526040902054806118e45760405162461bcd60e51b81526020600482015260166024820152754e6f2062616c616e636520746f20776974686472617760501b60448201526064016106bd565b60006127106118f5836103e8613ef0565b6118ff9190613f07565b9050600061190d8284613e07565b336000818152600b870160209081526040808320839055600c890190915290819020805460ff19169055600254905163a9059cbb60e01b815292935061010090046001600160a01b03169163a9059cbb916119809185906004016001600160a01b03929092168252602082015260400190565b6020604051808303816000875af115801561199f573d6000803e3d6000fd5b505050506040513d601f19601f820116820180604052508101906119c39190613da1565b611a0f5760405162461bcd60e51b815260206004820152601860248201527f5769746864726177207472616e73666572206661696c6564000000000000000060448201526064016106bd565b81846004016000828254611a239190613e6f565b9091555050604051818152339086907fd3e69353709a7dcaab28b44353b592c552cd797c95ffb523f924c0a16b4a2c2b9060200160405180910390a350505050610ae660018055565b611a74613551565b611a7c61357e565b60008381526006602052604090206001600682015460ff166004811115611aa557611aa561372d565b14611ac25760405162461bcd60e51b81526004016106bd90613e46565b8151835114611b0b5760405162461bcd60e51b8152602060048201526015602482015274082e4e4c2f240d8cadccee8d040dad2e6dac2e8c6d605b1b60448201526064016106bd565b6000835111611b525760405162461bcd60e51b8152602060048201526013602482015272139bc81c1b185e595c9cc81c1c9bdd9a591959606a1b60448201526064016106bd565b600481015480611b9b5760405162461bcd60e51b81526020600482015260146024820152734e6f20706f7420746f206469737472696275746560601b60448201526064016106bd565b6000805b8451811015611bd757848181518110611bba57611bba613e1a565b602002602001015182611bcd9190613e6f565b9150600101611b9f565b5060008111611c365760405162461bcd60e51b815260206004820152602560248201527f546f74616c206368697073206d7573742062652067726561746572207468616e604482015264207a65726f60d81b60648201526084016106bd565b60005b8551811015611ca55783600c016000878381518110611c5a57611c5a613e1a565b6020908102919091018101516001600160a01b031682528101919091526040016000205460ff16611c9d5760405162461bcd60e51b81526004016106bd90613f29565b600101611c39565b506000612710600a5484611cb99190613ef0565b611cc39190613f07565b90506000611cd18285613e07565b90506000875167ffffffffffffffff811115611cef57611cef61387c565b604051908082528060200260200182016040528015611d18578160200160208202803683370190505b50905060008089600081518110611d3157611d31613e1a565b60200260200101519050600089600081518110611d5057611d50613e1a565b6020026020010151905060005b8b51811015611f2557818b8281518110611d7957611d79613e1a565b60200260200101511115611dc0578a8181518110611d9957611d99613e1a565b602002602001015191508b8181518110611db557611db5613e1a565b602002602001015192505b6000888c8381518110611dd557611dd5613e1a565b602002602001015188611de89190613ef0565b611df29190613f07565b905080868381518110611e0757611e07613e1a565b6020908102919091010152611e1c8186613e6f565b94508015611f1c57600260019054906101000a90046001600160a01b03166001600160a01b031663a9059cbb8e8481518110611e5a57611e5a613e1a565b6020026020010151836040518363ffffffff1660e01b8152600401611e949291906001600160a01b03929092168252602082015260400190565b6020604051808303816000875af1158015611eb3573d6000803e3d6000fd5b505050506040513d601f19601f82011682018060405250810190611ed79190613da1565b611f1c5760405162461bcd60e51b8152602060048201526016602482015275141b185e595c881d1c985b9cd9995c8819985a5b195960521b60448201526064016106bd565b50600101611d5d565b506000611f328487613e07565b90508015611ffa5760025460405163a9059cbb60e01b81526001600160a01b038581166004830152602482018490526101009092049091169063a9059cbb906044016020604051808303816000875af1158015611f93573d6000803e3d6000fd5b505050506040513d601f19601f82011682018060405250810190611fb79190613da1565b611ffa5760405162461bcd60e51b8152602060048201526014602482015273111d5cdd081d1c985b9cd9995c8819985a5b195960621b60448201526064016106bd565b86156120d957600254600b5460405163a9059cbb60e01b81526001600160a01b039182166004820152602481018a9052610100909204169063a9059cbb906044016020604051808303816000875af115801561205a573d6000803e3d6000fd5b505050506040513d601f19601f8201168201806040525081019061207e9190613da1565b6120c15760405162461bcd60e51b815260206004820152601460248201527314985ad9481d1c985b9cd9995c8819985a5b195960621b60448201526064016106bd565b86600c60008282546120d39190613e6f565b90915550505b60068a0180546001600160a01b038516610100026001600160a81b03199091161760031790554260088b0155600060048b01556040518d907f05d24d611c29e8527295fd44311d7bdcb9d1ab4e6e185ac308025286fcb701b790612142908f9089908c90613f55565b60405180910390a25050505050505050505061075860018055565b60008281526006602090815260408083206001600160a01b0385168452600b019091529020545b92915050565b612192613551565b6001600160a01b0381166121e85760405162461bcd60e51b815260206004820152601860248201527f496e76616c69642074726561737572792061646472657373000000000000000060448201526064016106bd565b600b80546001600160a01b0319166001600160a01b0383169081179091556040517f7dae230f18360d76a040c81f050aa14eb9d6dc7901b20fc5d855e2a20fe814d190600090a250565b60008581526006602052604090206001600682015460ff16600481111561225b5761225b61372d565b148061227f57506002600682015460ff16600481111561227d5761227d61372d565b145b6122cb5760405162461bcd60e51b815260206004820152601b60248201527f47616d65206e6f7420696e20706c61792f73686f77207068617365000000000060448201526064016106bd565b336000908152600c8201602052604090205460ff166122fc5760405162461bcd60e51b81526004016106bd90613f29565b336000908152600d8201602052604090205460ff16156123535760405162461bcd60e51b81526020600482015260126024820152712430b7321030b63932b0b23c9039b437bbb760711b60448201526064016106bd565b600554604051633a94343960e21b81526000916001600160a01b03169063ea50d0e49061238a908990899089908990600401613fb7565b602060405180830381865afa1580156123a7573d6000803e3d6000fd5b505050506040513d601f19601f820116820180604052508101906123cb9190613da1565b90508061240f5760405162461bcd60e51b815260206004820152601260248201527124b73b30b634b21039b437bb90383937b7b360711b60448201526064016106bd565b336000908152600d830160205260409020805460ff19166001908117909155600683015460ff1660048111156124475761244761372d565b0361245c5760068201805460ff191660021790555b60008484600981811061247157612471613e1a565b9050602002013560001c90506000858560405160200161249292919061401b565b60408051808303601f190181528282528051602091820120600a880180546001808201835560009283528483209091018390558e82526008845284822060a0870186528387523385880190815260029688018781524260608a01526080890184905282548085018455928552959093208751600490920201908155915190820180546001600160a01b031981166001600160a01b03909316928317825594519397509194929391926001600160a81b03199092161790600160a01b90849081111561255f5761255f61372d565b0217905550606082015160028201556080909101516003909101805460ff191691151591909117905560405182815233908a907f62fd4e2d9b970e3665397d6dbf358098173c98332433415fcbb6f3b247fee30f9060200160405180910390a3336001600160a01b0316897fd30d702a06707dd713d63d0c1e21606c71d063a1b292f4e052d1117da8436ae260026040516125fa9190614044565b60405180910390a3505050505050505050565b612615613551565b610d8161366e565b6060600980548060200260200160405190810160405280929190818152602001828054801561266b57602002820191906000526020600020905b815481526020019060010190808311612657575b5050505050905090565b6001600160a01b0381166000908152600760209081526040918290208054835181840281018401909452808452606093928301828280156126d557602002820191906000526020600020905b8154815260200190600101908083116126c1575b50505050509050919050565b60006126eb61357e565b6126f36135fa565b600083116127435760405162461bcd60e51b815260206004820152601760248201527f4275792d696e206d75737420626520706f73697469766500000000000000000060448201526064016106bd565b60028210158015612755575060068211155b6127975760405162461bcd60e51b8152602060048201526013602482015272496e76616c6964206d617820706c617965727360681b60448201526064016106bd565b6002546040516370a0823160e01b8152336004820152849161010090046001600160a01b0316906370a0823190602401602060405180830381865afa1580156127e4573d6000803e3d6000fd5b505050506040513d601f19601f820116820180604052508101906128089190613eaf565b10156128565760405162461bcd60e51b815260206004820152601a60248201527f496e73756666696369656e7420746f6b656e2062616c616e636500000000000060448201526064016106bd565b6040516bffffffffffffffffffffffff193360601b16602082015242603482015244605482015260009060740160408051808303601f19018152828252805160209182012062ffffff60e01b8116600081815260069384905293909320838155600181018054336001600160a01b03199091168117909155600382018a905560058201899055928101805460ff191690554260078201556002546323b872dd60e01b865260048601939093523060248601526044850189905290945091926001600160a01b0361010090920491909116906323b872dd906064016020604051808303816000875af115801561294f573d6000803e3d6000fd5b505050506040513d601f19601f820116820180604052508101906129739190613da1565b6129b75760405162461bcd60e51b8152602060048201526015602482015274151bdad95b881d1c985b9cd9995c8819985a5b1959605a1b60448201526064016106bd565b600281018054600180820183556000928352602080842090920180546001600160a01b03191633908117909155808452600b8501835260408085208b9055600c86018452808520805460ff191684179055600486018b9055600980548085019091557f6e1540171b6c0c960b71a7020d9f60077f6af931a8bbf590da0223dacf75c7af01879055600784528085208054938401815585529383902090910185905582518981529182018890529184917f7205d4960f11b42d9694576da1d12e22b637d2eaac623cc7a27f41509be13523910160405180910390a3604051868152339083907f65525cf08411b7a61d237681a43890956ad2e2ede88afd947f58eb4158c37f959060200160405180910390a35091505061218460018055565b60008181526006602052604090206003600682015460ff166004811115612afe57612afe61372d565b1480612b2257506004600682015460ff166004811115612b2057612b2061372d565b145b612b625760405162461bcd60e51b815260206004820152601160248201527011d85b59481b9bdd08199a5b9a5cda1959607a1b60448201526064016106bd565b60018101546001600160a01b0316331480612b8757506000546001600160a01b031633145b612ba35760405162461bcd60e51b81526004016106bd90613ec8565b60405182907ff89b62d5ed31af5007e4f697e3397fd9a3854dfecb25a7dd0c8d3d9bf8bd816890600090a25050565b60008581526006602052604090206001600682015460ff166004811115612bfb57612bfb61372d565b14612c185760405162461bcd60e51b81526004016106bd90613e46565b336000908152600c8201602052604090205460ff16612c495760405162461bcd60e51b81526004016106bd90613f29565b60048054604051633a94343960e21b81526000926001600160a01b039092169163ea50d0e491612c81918a918a918a918a9101613fb7565b602060405180830381865afa158015612c9e573d6000803e3d6000fd5b505050506040513d601f19601f82011682018060405250810190612cc29190613da1565b905080612d065760405162461bcd60e51b815260206004820152601260248201527124b73b30b634b2103232b0b610383937b7b360711b60448201526064016106bd565b60008484604051602001612d1b92919061401b565b60408051601f198184030181528282528051602091820120600a870180546001808201835560009283528483209091018390558d82526008845284822060a087018652838752338588019081529587018281524260608901526080880183905281548084018355918452949092208651600490930201918255935193810180546001600160a01b039095166001600160a01b031986168117825593519296509093919290916001600160a81b03191617600160a01b836002811115612de257612de261372d565b0217905550606082015160028201556080909101516003909101805460ff1916911515919091179055604051339089907fd30d702a06707dd713d63d0c1e21606c71d063a1b292f4e052d1117da8436ae290612e4090600190614044565b60405180910390a35050505050505050565b60076020528160005260406000208181548110612e6e57600080fd5b90600052602060002001600091509150505481565b606060086000838152602001908152602001600020805480602002602001604051908101604052809291908181526020016000905b82821015612f595760008481526020908190206040805160a081018252600486029092018054835260018101546001600160a01b03811694840194909452919290830190600160a01b900460ff166002811115612f1757612f1761372d565b6002811115612f2857612f2861372d565b8152600282015460208083019190915260039092015460ff1615156040909101529082526001929092019101612eb8565b505050509050919050565b612f6c61357e565b600086815260066020526040902060018101546001600160a01b0316612fa45760405162461bcd60e51b81526004016106bd90613e82565b60018101546001600160a01b0316331480612fc957506000546001600160a01b031633145b612fe55760405162461bcd60e51b81526004016106bd90613ec8565b6000600682015460ff1660048111156130005761300061372d565b1461301d5760405162461bcd60e51b81526004016106bd90613dc3565b600281810154101561306b5760405162461bcd60e51b81526020600482015260176024820152764e656564206174206c65617374203220706c617965727360481b60448201526064016106bd565b600354604051633a94343960e21b81526000916001600160a01b03169063ea50d0e4906130a2908990899089908990600401613fb7565b602060405180830381865afa1580156130bf573d6000803e3d6000fd5b505050506040513d601f19601f820116820180604052508101906130e39190613da1565b90508061312a5760405162461bcd60e51b815260206004820152601560248201527424b73b30b634b21039b43ab333363290383937b7b360591b60448201526064016106bd565b600682018054600160ff199091168117909155600983018890556000898152600860209081526040808320815160a0810183528c8152338185019081529281018581524260608301526080820187905282548088018455928652939094208451600490920201908155905193810180546001600160a01b039095166001600160a01b03198616811782559251939491939290916001600160a81b03191617600160a01b8360028111156131df576131df61372d565b021790555060608201516002828101919091556080909201516003909101805460ff191691151591909117905582015460408051898152602081019290925289917f9c47794f6413134ef78d3b54782919598b09f504e50ce0da72e00406c17fcdfb910160405180910390a2336001600160a01b0316887fd30d702a06707dd713d63d0c1e21606c71d063a1b292f4e052d1117da8436ae260006040516132869190614044565b60405180910390a3505061329960018055565b505050505050565b6132a9613551565b6103e88111156132ef5760405162461bcd60e51b81526020600482015260116024820152700a4c2d6ca40cccaca40e8dede40d0d2ced607b1b60448201526064016106bd565b600a8190556040518181527f6b845bb86927d69db9a0fd7699fedbadfd7c12ad26d8cf7490c7fb8348ca958e9060200160405180910390a150565b613332613551565b6001600160a01b03811661335c57604051631e4fbdf760e01b8152600060048201526024016106bd565b610ae68161361e565b6000818152600660209081526040918290206002018054835181840281018401909452808452606093928301828280156126d557602002820191906000526020600020905b81546001600160a01b031681526001909101906020018083116133aa5750505050509050919050565b6133db613551565b6001600160a01b0383166134315760405162461bcd60e51b815260206004820152601860248201527f496e76616c69642073687566666c65207665726966696572000000000000000060448201526064016106bd565b6001600160a01b03821661347f5760405162461bcd60e51b815260206004820152601560248201527424b73b30b634b2103232b0b6103b32b934b334b2b960591b60448201526064016106bd565b6001600160a01b0381166134cd5760405162461bcd60e51b815260206004820152601560248201527424b73b30b634b21039b437bb903b32b934b334b2b960591b60448201526064016106bd565b600380546001600160a01b038581166001600160a01b0319928316811790935560048054868316908416811790915560058054928616929093168217909255604080519384526020840192909252908201527fcdb44c0a599b75813fe4a4593f032c7cfd38aa9e6461ba99a31aba3540b502109060600160405180910390a1505050565b6000546001600160a01b03163314610d815760405163118cdaa760e01b81523360048201526024016106bd565b6002600154036135a157604051633ee5aeb560e01b815260040160405180910390fd5b6002600155565b6135b06136ab565b6002805460ff191690557f5db9ee0a495bf2e6ff9c91a7834c1ba4fdd244a5e8aa4e537bd38aeae4b073aa335b6040516001600160a01b03909116815260200160405180910390a1565b60025460ff1615610d815760405163d93c066560e01b815260040160405180910390fd5b600080546001600160a01b038381166001600160a01b0319831681178455604051919092169283917f8be0079c531659141344cd1fd0a4f28419497f9722a3daafe3b4186f6b6457e09190a35050565b6136766135fa565b6002805460ff191660011790557f62e78cea01bee320cd4e420270b5ea74000d11b0c9f74754ebdbfc544b05a2586135dd3390565b60025460ff16610d8157604051638dfc202b60e01b815260040160405180910390fd5b80356001600160a01b03811681146136e557600080fd5b919050565b600080604083850312156136fd57600080fd5b613706836136ce565b946020939093013593505050565b60006020828403121561372657600080fd5b5035919050565b634e487b7160e01b600052602160045260246000fd5b600581106137535761375361372d565b9052565b6001600160a01b03881681526020810187905260408101869052606081018590526080810184905260e0810161379060a0830185613743565b6001600160a01b039290921660c091909101529695505050505050565b600080604083850312156137c057600080fd5b50508035926020909101359150565b600381106137535761375361372d565b8581526001600160a01b038516602082015260a0810161380260408301866137cf565b83606083015282151560808301529695505050505050565b6000806040838503121561382d57600080fd5b8235915061383d602084016136ce565b90509250929050565b60008060006060848603121561385b57600080fd5b8335925061386b602085016136ce565b929592945050506040919091013590565b634e487b7160e01b600052604160045260246000fd5b604051601f8201601f1916810167ffffffffffffffff811182821017156138bb576138bb61387c565b604052919050565b600067ffffffffffffffff8211156138dd576138dd61387c565b5060051b60200190565b600082601f8301126138f857600080fd5b813561390b613906826138c3565b613892565b8082825260208201915060208360051b86010192508583111561392d57600080fd5b602085015b8381101561394a578035835260209283019201613932565b5095945050505050565b60008060006060848603121561396957600080fd5b83359250602084013567ffffffffffffffff81111561398757600080fd5b8401601f8101861361399857600080fd5b80356139a6613906826138c3565b8082825260208201915060208360051b8501019250888311156139c857600080fd5b6020840193505b828410156139f1576139e0846136ce565b8252602093840193909101906139cf565b9450505050604084013567ffffffffffffffff811115613a1057600080fd5b613a1c868287016138e7565b9150509250925092565b600060208284031215613a3857600080fd5b613a41826136ce565b9392505050565b60008083601f840112613a5a57600080fd5b50813567ffffffffffffffff811115613a7257600080fd5b602083019150836020828501011115613a8a57600080fd5b9250929050565b60008083601f840112613aa357600080fd5b50813567ffffffffffffffff811115613abb57600080fd5b6020830191508360208260051b8501011115613a8a57600080fd5b600080600080600060608688031215613aee57600080fd5b85359450602086013567ffffffffffffffff811115613b0c57600080fd5b613b1888828901613a48565b909550935050604086013567ffffffffffffffff811115613b3857600080fd5b613b4488828901613a91565b969995985093965092949392505050565b602080825282518282018190526000918401906040840190835b81811015613b8d578351835260209384019390920191600101613b6f565b509095945050505050565b602080825282518282018190526000918401906040840190835b81811015613b8d578351805184526020808201516001600160a01b03169085015260408082015190613be6908601826137cf565b50606081810151908501526080908101511515908401526020939093019260a090920191600101613bb2565b60008060008060008060808789031215613c2b57600080fd5b8635955060208701359450604087013567ffffffffffffffff811115613c5057600080fd5b613c5c89828a01613a48565b909550935050606087013567ffffffffffffffff811115613c7c57600080fd5b613c8889828a01613a91565b979a9699509497509295939492505050565b8a81526001600160a01b038a1660208201526040810189905260608101889052608081018790526101408101613cd360a0830188613743565b6001600160a01b039590951660c082015260e0810193909352610100830191909152610120909101529695505050505050565b600081518084526020840193506020830160005b82811015613d415781516001600160a01b0316865260209586019590910190600101613d1a565b5093949350505050565b602081526000613a416020830184613d06565b600080600060608486031215613d7357600080fd5b613d7c846136ce565b9250613d8a602085016136ce565b9150613d98604085016136ce565b90509250925092565b600060208284031215613db357600080fd5b81518015158114613a4157600080fd5b60208082526014908201527311d85b5948185b1c9958591e481cdd185c9d195960621b604082015260600190565b634e487b7160e01b600052601160045260246000fd5b8181038181111561218457612184613df1565b634e487b7160e01b600052603260045260246000fd5b634e487b7160e01b600052603160045260246000fd5b6020808252600f908201526e47616d65206e6f742061637469766560881b604082015260600190565b8082018082111561218457612184613df1565b602080825260139082015272149bdbdb48191bd95cc81b9bdd08195e1a5cdd606a1b604082015260600190565b600060208284031215613ec157600080fd5b5051919050565b6020808252600e908201526d139bdd08185d5d1a1bdc9a5e995960921b604082015260600190565b808202811582820484141761218457612184613df1565b600082613f2457634e487b7160e01b600052601260045260246000fd5b500490565b602080825260129082015271506c61796572206e6f7420696e20726f6f6d60701b604082015260600190565b606081526000613f686060830186613d06565b828103602084015280855180835260208301915060208701925060005b81811015613fa3578351835260209384019390920191600101613f85565b505060409390930193909352509392505050565b6040815283604082015283856060830137600060608583018101829052601f19601f8701168301838103820160208501529081018490526001600160fb1b0384111561400257600080fd5b8360051b80866080840137016080019695505050505050565b60006001600160fb1b0383111561403157600080fd5b8260051b80858437919091019392505050565b6020810161218482846137cf56fea2646970667358221220375c30d8bfcffb3b6a384c60826e657d2141963aa754da64597cbcbbd651270564736f6c634300081c0033",
  "linkReferences": {},
  "deployedLinkReferences": {}
}